{
  "contractName": "CappedStrategy",
  "abi": [
    {
      "inputs": [
        {
          "name": "_limitCap",
          "type": "uint256"
        }
      ],
      "payable": false,
      "stateMutability": "nonpayable",
      "type": "constructor"
    },
    {
      "constant": true,
      "inputs": [
        {
          "name": "_investment",
          "type": "uint256"
        },
        {
          "name": "_fullInvestmentReceived",
          "type": "uint256"
        }
      ],
      "name": "isFullInvestmentWithinLimit",
      "outputs": [
        {
          "name": "",
          "type": "bool"
        }
      ],
      "payable": false,
      "stateMutability": "view",
      "type": "function"
    }
  ],
  "bytecode": "0x608060405234801561001057600080fd5b5060405160208061012a8339810180604052810190808051906020019092919050505060008111151561004257600080fd5b806000819055505060d2806100586000396000f300608060405260043610603f576000357c0100000000000000000000000000000000000000000000000000000000900463ffffffff16806306b9c583146044575b600080fd5b348015604f57600080fd5b50607660048036038101908080359060200190929190803590602001909291905050506090565b604051808215151515815260200191505060405180910390f35b60008060005484840110905080915050929150505600a165627a7a72305820854ce51ac94bcbf70bf5e579abd9fe186986582b1293b892052c7e45694fc8990029",
  "source": "pragma solidity ^0.4.23;\nimport \"../LimitStrategy.sol\";\n\ncontract CappedStrategy is LimitStrategy {\n    uint256 limitCap;\n\n    constructor(uint256 _limitCap) public {\n        require(_limitCap > 0);\n        limitCap = _limitCap;\n    }\n\n    function isFullInvestmentWithinLimit(uint256 _investment, \n        uint256 _fullInvestmentReceived) \n        public view returns (bool) {\n        \n        bool check = _fullInvestmentReceived + _investment < limitCap; \n        return check;\n    }\n}",
  "sourcePath": "/home/svrainp/Project/Capston_truffle/contracts/Strategy/EachStrategy/CappedStrategy.sol",
  "compiler": {
    "name": "solc",
    "version": "0.4.25+commit.59dbf8f1.Emscripten.clang"
  },
  "schemaVersion": "2.0.2",
  "updatedAt": "2021-05-18T00:20:13.686Z"
}