{
  "contractName": "SimpleCoin",
  "abi": [
    {
      "constant": true,
      "inputs": [],
      "name": "owner",
      "outputs": [
        {
          "name": "",
          "type": "address"
        }
      ],
      "payable": false,
      "stateMutability": "view",
      "type": "function"
    },
    {
      "constant": true,
      "inputs": [
        {
          "name": "",
          "type": "address"
        }
      ],
      "name": "frozenAccount",
      "outputs": [
        {
          "name": "",
          "type": "bool"
        }
      ],
      "payable": false,
      "stateMutability": "view",
      "type": "function"
    },
    {
      "constant": true,
      "inputs": [
        {
          "name": "",
          "type": "address"
        },
        {
          "name": "",
          "type": "address"
        }
      ],
      "name": "allowance",
      "outputs": [
        {
          "name": "",
          "type": "uint256"
        }
      ],
      "payable": false,
      "stateMutability": "view",
      "type": "function"
    },
    {
      "constant": true,
      "inputs": [
        {
          "name": "",
          "type": "address"
        }
      ],
      "name": "coinBalance",
      "outputs": [
        {
          "name": "",
          "type": "uint256"
        }
      ],
      "payable": false,
      "stateMutability": "view",
      "type": "function"
    },
    {
      "inputs": [
        {
          "name": "_initialSupply",
          "type": "uint256"
        }
      ],
      "payable": false,
      "stateMutability": "nonpayable",
      "type": "constructor"
    },
    {
      "anonymous": false,
      "inputs": [
        {
          "indexed": true,
          "name": "from",
          "type": "address"
        },
        {
          "indexed": true,
          "name": "to",
          "type": "address"
        },
        {
          "indexed": false,
          "name": "value",
          "type": "uint256"
        }
      ],
      "name": "Transfer",
      "type": "event"
    },
    {
      "anonymous": false,
      "inputs": [
        {
          "indexed": false,
          "name": "target",
          "type": "address"
        },
        {
          "indexed": false,
          "name": "frozen",
          "type": "bool"
        }
      ],
      "name": "FrozenAccount",
      "type": "event"
    },
    {
      "constant": false,
      "inputs": [
        {
          "name": "_to",
          "type": "address"
        },
        {
          "name": "_amount",
          "type": "uint256"
        }
      ],
      "name": "transfer",
      "outputs": [],
      "payable": false,
      "stateMutability": "nonpayable",
      "type": "function"
    },
    {
      "constant": false,
      "inputs": [
        {
          "name": "_authorizedAccount",
          "type": "address"
        },
        {
          "name": "_allowance",
          "type": "uint256"
        }
      ],
      "name": "authorize",
      "outputs": [
        {
          "name": "success",
          "type": "bool"
        }
      ],
      "payable": false,
      "stateMutability": "nonpayable",
      "type": "function"
    },
    {
      "constant": false,
      "inputs": [
        {
          "name": "_from",
          "type": "address"
        },
        {
          "name": "_to",
          "type": "address"
        },
        {
          "name": "_amount",
          "type": "uint256"
        }
      ],
      "name": "transferFrom",
      "outputs": [
        {
          "name": "success",
          "type": "bool"
        }
      ],
      "payable": false,
      "stateMutability": "nonpayable",
      "type": "function"
    },
    {
      "constant": false,
      "inputs": [
        {
          "name": "_recipient",
          "type": "address"
        },
        {
          "name": "_mintedAmount",
          "type": "uint256"
        }
      ],
      "name": "mint",
      "outputs": [],
      "payable": false,
      "stateMutability": "nonpayable",
      "type": "function"
    },
    {
      "constant": false,
      "inputs": [
        {
          "name": "target",
          "type": "address"
        },
        {
          "name": "freeze",
          "type": "bool"
        }
      ],
      "name": "freezeAccount",
      "outputs": [],
      "payable": false,
      "stateMutability": "nonpayable",
      "type": "function"
    }
  ],
  "bytecode": "0x608060405234801561001057600080fd5b5060405160208062000fea833981018060405261003091908101906101f9565b33600360006101000a81548173ffffffffffffffffffffffffffffffffffffffff021916908373ffffffffffffffffffffffffffffffffffffffff1602179055506100ac600360009054906101000a900473ffffffffffffffffffffffffffffffffffffffff16826100b2640100000000026401000000009004565b50610260565b600360009054906101000a900473ffffffffffffffffffffffffffffffffffffffff1673ffffffffffffffffffffffffffffffffffffffff163373ffffffffffffffffffffffffffffffffffffffff1614151561010e57600080fd5b806000808473ffffffffffffffffffffffffffffffffffffffff1673ffffffffffffffffffffffffffffffffffffffff168152602001908152602001600020600082825401925050819055508173ffffffffffffffffffffffffffffffffffffffff16600360009054906101000a900473ffffffffffffffffffffffffffffffffffffffff1673ffffffffffffffffffffffffffffffffffffffff167fddf252ad1be2c89b69c2b068fc378daa952ba7f163c4a11628f55a4df523b3ef836040516101d99190610231565b60405180910390a35050565b60006101f18251610256565b905092915050565b60006020828403121561020b57600080fd5b6000610219848285016101e5565b91505092915050565b61022b8161024c565b82525050565b60006020820190506102466000830184610222565b92915050565b6000819050919050565b6000819050919050565b610d7a80620002706000396000f300608060405260043610610099576000357c0100000000000000000000000000000000000000000000000000000000900463ffffffff16806323b872dd1461009e57806340c10f19146100db5780638da5cb5b14610104578063a9059cbb1461012f578063b414d4b614610158578063c1dbd9b214610195578063dd62ed3e146101d2578063e724529c1461020f578063fabde80c14610238575b600080fd5b3480156100aa57600080fd5b506100c560048036036100c09190810190610b66565b610275565b6040516100d29190610c9e565b60405180910390f35b3480156100e757600080fd5b5061010260048036036100fd9190810190610bf1565b610592565b005b34801561011057600080fd5b506101196106c5565b6040516101269190610c5a565b60405180910390f35b34801561013b57600080fd5b5061015660048036036101519190810190610bf1565b6106eb565b005b34801561016457600080fd5b5061017f600480360361017a9190810190610b01565b6108eb565b60405161018c9190610c9e565b60405180910390f35b3480156101a157600080fd5b506101bc60048036036101b79190810190610bf1565b61090b565b6040516101c99190610c9e565b60405180910390f35b3480156101de57600080fd5b506101f960048036036101f49190810190610b2a565b610998565b6040516102069190610cb9565b60405180910390f35b34801561021b57600080fd5b5061023660048036036102319190810190610bb5565b6109bd565b005b34801561024457600080fd5b5061025f600480360361025a9190810190610b01565b610aad565b60405161026c9190610cb9565b60405180910390f35b6000808373ffffffffffffffffffffffffffffffffffffffff161415151561029c57600080fd5b816000808673ffffffffffffffffffffffffffffffffffffffff1673ffffffffffffffffffffffffffffffffffffffff168152602001908152602001600020541115156102e857600080fd5b6000808473ffffffffffffffffffffffffffffffffffffffff1673ffffffffffffffffffffffffffffffffffffffff16815260200190815260200160002054826000808673ffffffffffffffffffffffffffffffffffffffff1673ffffffffffffffffffffffffffffffffffffffff16815260200190815260200160002054011015151561037557600080fd5b600160008573ffffffffffffffffffffffffffffffffffffffff1673ffffffffffffffffffffffffffffffffffffffff16815260200190815260200160002060003373ffffffffffffffffffffffffffffffffffffffff1673ffffffffffffffffffffffffffffffffffffffff16815260200190815260200160002054821115151561040057600080fd5b816000808673ffffffffffffffffffffffffffffffffffffffff1673ffffffffffffffffffffffffffffffffffffffff16815260200190815260200160002060008282540392505081905550816000808573ffffffffffffffffffffffffffffffffffffffff1673ffffffffffffffffffffffffffffffffffffffff1681526020019081526020016000206000828254019250508190555081600160008673ffffffffffffffffffffffffffffffffffffffff1673ffffffffffffffffffffffffffffffffffffffff16815260200190815260200160002060003373ffffffffffffffffffffffffffffffffffffffff1673ffffffffffffffffffffffffffffffffffffffff168152602001908152602001600020600082825403925050819055508273ffffffffffffffffffffffffffffffffffffffff168473ffffffffffffffffffffffffffffffffffffffff167fddf252ad1be2c89b69c2b068fc378daa952ba7f163c4a11628f55a4df523b3ef8460405161057f9190610cb9565b60405180910390a3600190509392505050565b600360009054906101000a900473ffffffffffffffffffffffffffffffffffffffff1673ffffffffffffffffffffffffffffffffffffffff163373ffffffffffffffffffffffffffffffffffffffff161415156105ee57600080fd5b806000808473ffffffffffffffffffffffffffffffffffffffff1673ffffffffffffffffffffffffffffffffffffffff168152602001908152602001600020600082825401925050819055508173ffffffffffffffffffffffffffffffffffffffff16600360009054906101000a900473ffffffffffffffffffffffffffffffffffffffff1673ffffffffffffffffffffffffffffffffffffffff167fddf252ad1be2c89b69c2b068fc378daa952ba7f163c4a11628f55a4df523b3ef836040516106b99190610cb9565b60405180910390a35050565b600360009054906101000a900473ffffffffffffffffffffffffffffffffffffffff1681565b60008273ffffffffffffffffffffffffffffffffffffffff161415151561071157600080fd5b806000803373ffffffffffffffffffffffffffffffffffffffff1673ffffffffffffffffffffffffffffffffffffffff1681526020019081526020016000205411151561075d57600080fd5b6000808373ffffffffffffffffffffffffffffffffffffffff1673ffffffffffffffffffffffffffffffffffffffff16815260200190815260200160002054816000808573ffffffffffffffffffffffffffffffffffffffff1673ffffffffffffffffffffffffffffffffffffffff1681526020019081526020016000205401101515156107ea57600080fd5b806000803373ffffffffffffffffffffffffffffffffffffffff1673ffffffffffffffffffffffffffffffffffffffff16815260200190815260200160002060008282540392505081905550806000808473ffffffffffffffffffffffffffffffffffffffff1673ffffffffffffffffffffffffffffffffffffffff168152602001908152602001600020600082825401925050819055508173ffffffffffffffffffffffffffffffffffffffff163373ffffffffffffffffffffffffffffffffffffffff167fddf252ad1be2c89b69c2b068fc378daa952ba7f163c4a11628f55a4df523b3ef836040516108df9190610cb9565b60405180910390a35050565b60026020528060005260406000206000915054906101000a900460ff1681565b600081600160003373ffffffffffffffffffffffffffffffffffffffff1673ffffffffffffffffffffffffffffffffffffffff16815260200190815260200160002060008573ffffffffffffffffffffffffffffffffffffffff1673ffffffffffffffffffffffffffffffffffffffff168152602001908152602001600020819055506001905092915050565b6001602052816000526040600020602052806000526040600020600091509150505481565b600360009054906101000a900473ffffffffffffffffffffffffffffffffffffffff1673ffffffffffffffffffffffffffffffffffffffff163373ffffffffffffffffffffffffffffffffffffffff16141515610a1957600080fd5b80600260008473ffffffffffffffffffffffffffffffffffffffff1673ffffffffffffffffffffffffffffffffffffffff16815260200190815260200160002060006101000a81548160ff0219169083151502179055507f67a17b8db8ff8fa7cff69c2328bf8a35f9be2c88abeea30be900fc28eece28ed8282604051610aa1929190610c75565b60405180910390a15050565b60006020528060005260406000206000915090505481565b6000610ad18235610d0a565b905092915050565b6000610ae58235610d2a565b905092915050565b6000610af98235610d36565b905092915050565b600060208284031215610b1357600080fd5b6000610b2184828501610ac5565b91505092915050565b60008060408385031215610b3d57600080fd5b6000610b4b85828601610ac5565b9250506020610b5c85828601610ac5565b9150509250929050565b600080600060608486031215610b7b57600080fd5b6000610b8986828701610ac5565b9350506020610b9a86828701610ac5565b9250506040610bab86828701610aed565b9150509250925092565b60008060408385031215610bc857600080fd5b6000610bd685828601610ac5565b9250506020610be785828601610ad9565b9150509250929050565b60008060408385031215610c0457600080fd5b6000610c1285828601610ac5565b9250506020610c2385828601610aed565b9150509250929050565b610c3681610cd4565b82525050565b610c4581610cf4565b82525050565b610c5481610d00565b82525050565b6000602082019050610c6f6000830184610c2d565b92915050565b6000604082019050610c8a6000830185610c2d565b610c976020830184610c3c565b9392505050565b6000602082019050610cb36000830184610c3c565b92915050565b6000602082019050610cce6000830184610c4b565b92915050565b600073ffffffffffffffffffffffffffffffffffffffff82169050919050565b60008115159050919050565b6000819050919050565b600073ffffffffffffffffffffffffffffffffffffffff82169050919050565b60008115159050919050565b60008190509190505600a265627a7a72305820791202f831ae1a0b517309c118deabea6f3fffe1ad377fd33a737fee911053986c6578706572696d656e74616cf50037",
  "source": "pragma solidity ^0.4.23;\npragma experimental ABIEncoderV2;\n\ncontract SimpleCoin {\n    mapping (address => uint256) public coinBalance;\n    mapping (address => mapping (address => uint256)) public allowance;\n    mapping (address => bool) public frozenAccount;\n    address public owner;\n\n    event Transfer(address indexed from, address indexed to, uint256 value);\n    event FrozenAccount(address target, bool frozen);\n\n    modifier onlyOwner {\n        if (msg.sender != owner) revert();\n        _;\n    }\n\n    constructor(uint256 _initialSupply) public {\n        owner = msg.sender;\n\n        mint(owner, _initialSupply);\n    }\n\n    function transfer(address _to, uint256 _amount) public {\n        require(_to != 0x0);\n        require(coinBalance[msg.sender] > _amount);\n        require(coinBalance[_to] + _amount >= coinBalance[_to] );//check overflow\n        coinBalance[msg.sender] -= _amount;\n        coinBalance[_to] += _amount;\n        emit Transfer(msg.sender, _to, _amount);\n    }\n\n    function authorize(address _authorizedAccount, uint256 _allowance) public returns (bool success) {\n        allowance[msg.sender][_authorizedAccount] = _allowance;\n        return true;\n    }\n\n    function transferFrom(address _from, address _to, uint256 _amount) public returns (bool success) {\n        require(_to != 0x0);\n        require(coinBalance[_from] > _amount);\n        require(coinBalance[_to] + _amount >= coinBalance[_to] );\n        require(_amount <= allowance[_from][msg.sender]);\n\n        coinBalance[_from] -= _amount;\n        coinBalance[_to] += _amount;\n        allowance[_from][msg.sender] -= _amount;\n        emit Transfer(_from, _to, _amount);\n        return true;\n    }\n\n    function mint(address _recipient, uint256  _mintedAmount) onlyOwner public {\n        coinBalance[_recipient] += _mintedAmount;\n        emit Transfer(owner, _recipient, _mintedAmount);\n    }\n\n    function freezeAccount(address target, bool freeze) onlyOwner public {\n        frozenAccount[target] = freeze;\n        emit FrozenAccount(target, freeze);\n    }\n}\n\ninterface ReleasableToken {\n    function mint(address _beneficiary, uint256 _numberOfTokens) external;\n    function release() external;\n    function transfer(address _to, uint256 _amount) external;\n}\n\ncontract ReleasableSimpleCoin is ReleasableToken, SimpleCoin {\n    bool public released = false;\n\n    modifier canTransfer() {\n        if(!released) {\n            revert();\n        }\n        _;\n    }\n\n    constructor(uint256 _initialSupply) SimpleCoin(_initialSupply) public {}\n\n    function release() onlyOwner public {\n        released = true;\n    }\n\n    function transfer(address _to, uint256 _amount) canTransfer public {\n        super.transfer(_to, _amount);\n    }\n\n    function transferFrom(address _from, address _to, uint256 _amount) canTransfer public returns (bool) {\n        super.transferFrom(_from, _to, _amount);\n    }\n}",
  "sourcePath": "/home/svrainp/Project/Capston_truffle/contracts/SimpleCoin.sol",
  "compiler": {
    "name": "solc",
    "version": "0.4.25+commit.59dbf8f1.Emscripten.clang"
  },
  "schemaVersion": "2.0.2",
  "updatedAt": "2021-05-18T00:20:13.695Z"
}