{
  "contractName": "StageFactory",
  "abi": [
    {
      "constant": true,
      "inputs": [],
      "name": "name",
      "outputs": [
        {
          "name": "",
          "type": "string"
        }
      ],
      "payable": false,
      "stateMutability": "view",
      "type": "function"
    },
    {
      "constant": true,
      "inputs": [],
      "name": "totalAmount",
      "outputs": [
        {
          "name": "",
          "type": "uint256"
        }
      ],
      "payable": false,
      "stateMutability": "view",
      "type": "function"
    },
    {
      "constant": true,
      "inputs": [],
      "name": "isInvestmentHigher",
      "outputs": [
        {
          "name": "",
          "type": "bool"
        }
      ],
      "payable": false,
      "stateMutability": "view",
      "type": "function"
    },
    {
      "constant": true,
      "inputs": [],
      "name": "isFinalized",
      "outputs": [
        {
          "name": "",
          "type": "bool"
        }
      ],
      "payable": false,
      "stateMutability": "view",
      "type": "function"
    },
    {
      "constant": true,
      "inputs": [],
      "name": "owner",
      "outputs": [
        {
          "name": "",
          "type": "address"
        }
      ],
      "payable": false,
      "stateMutability": "view",
      "type": "function"
    },
    {
      "constant": true,
      "inputs": [],
      "name": "numOfChoices",
      "outputs": [
        {
          "name": "",
          "type": "uint256"
        }
      ],
      "payable": false,
      "stateMutability": "view",
      "type": "function"
    },
    {
      "constant": true,
      "inputs": [],
      "name": "isRefundingAllowed",
      "outputs": [
        {
          "name": "",
          "type": "bool"
        }
      ],
      "payable": false,
      "stateMutability": "view",
      "type": "function"
    },
    {
      "inputs": [
        {
          "name": "_name",
          "type": "string"
        },
        {
          "name": "_totalAmount",
          "type": "uint256"
        },
        {
          "name": "_numOfChoices",
          "type": "uint256"
        }
      ],
      "payable": false,
      "stateMutability": "nonpayable",
      "type": "constructor"
    },
    {
      "anonymous": false,
      "inputs": [
        {
          "indexed": false,
          "name": "zombieId",
          "type": "uint256"
        },
        {
          "indexed": false,
          "name": "name",
          "type": "string"
        },
        {
          "indexed": false,
          "name": "totalAmount",
          "type": "uint256"
        }
      ],
      "name": "NewStage",
      "type": "event"
    },
    {
      "constant": false,
      "inputs": [
        {
          "name": "_endTime",
          "type": "uint256"
        }
      ],
      "name": "setTime",
      "outputs": [],
      "payable": false,
      "stateMutability": "nonpayable",
      "type": "function"
    },
    {
      "constant": false,
      "inputs": [
        {
          "name": "_num",
          "type": "uint256"
        },
        {
          "name": "_choice_address",
          "type": "address"
        },
        {
          "name": "_choice_name",
          "type": "string"
        }
      ],
      "name": "setChoices",
      "outputs": [],
      "payable": false,
      "stateMutability": "nonpayable",
      "type": "function"
    },
    {
      "constant": true,
      "inputs": [],
      "name": "getChoices",
      "outputs": [
        {
          "name": "",
          "type": "string[]"
        }
      ],
      "payable": false,
      "stateMutability": "view",
      "type": "function"
    },
    {
      "constant": true,
      "inputs": [
        {
          "name": "_choiceId",
          "type": "uint256"
        }
      ],
      "name": "getChoiceInfo",
      "outputs": [
        {
          "name": "",
          "type": "string"
        },
        {
          "name": "",
          "type": "address"
        },
        {
          "name": "",
          "type": "uint256"
        }
      ],
      "payable": false,
      "stateMutability": "view",
      "type": "function"
    },
    {
      "constant": true,
      "inputs": [
        {
          "name": "_participant",
          "type": "address"
        }
      ],
      "name": "getParticipantInfo",
      "outputs": [
        {
          "name": "",
          "type": "uint256"
        },
        {
          "name": "",
          "type": "string"
        }
      ],
      "payable": false,
      "stateMutability": "view",
      "type": "function"
    },
    {
      "constant": false,
      "inputs": [
        {
          "name": "_choice",
          "type": "uint256"
        }
      ],
      "name": "attendStage",
      "outputs": [],
      "payable": true,
      "stateMutability": "payable",
      "type": "function"
    },
    {
      "constant": false,
      "inputs": [],
      "name": "checkMaxInvestment",
      "outputs": [
        {
          "name": "",
          "type": "uint256"
        }
      ],
      "payable": false,
      "stateMutability": "nonpayable",
      "type": "function"
    },
    {
      "constant": false,
      "inputs": [
        {
          "name": "_max_choice_index",
          "type": "uint256"
        }
      ],
      "name": "finalizeStage",
      "outputs": [],
      "payable": false,
      "stateMutability": "nonpayable",
      "type": "function"
    }
  ],
  "bytecode": "0x60806040523480156200001157600080fd5b506040516200193d3803806200193d833981018060405262000037919081019062000240565b336000806101000a81548173ffffffffffffffffffffffffffffffffffffffff021916908373ffffffffffffffffffffffffffffffffffffffff16021790555082600190805190602001906200008f9291906200011d565b50670de0b6b3a76400008202600281905550806003819055506000600660006101000a81548160ff0219169083151502179055506000600660016101000a81548160ff0219169083151502179055506000600660026101000a81548160ff0219169083151502179055506000600660036101000a81548160ff0219169083151502179055505050506200034a565b828054600181600116156101000203166002900490600052602060002090601f016020900481019282601f106200016057805160ff191683800117855562000191565b8280016001018555821562000191579182015b828111156200019057825182559160200191906001019062000173565b5b509050620001a09190620001a4565b5090565b620001c991905b80821115620001c5576000816000905550600101620001ab565b5090565b90565b600082601f8301121515620001e057600080fd5b8151620001f7620001f182620002dd565b620002af565b915080825260208301602083018583830111156200021457600080fd5b6200022183828462000314565b50505092915050565b60006200023882516200030a565b905092915050565b6000806000606084860312156200025657600080fd5b600084015167ffffffffffffffff8111156200027157600080fd5b6200027f86828701620001cc565b935050602062000292868287016200022a565b9250506040620002a5868287016200022a565b9150509250925092565b6000604051905081810181811067ffffffffffffffff82111715620002d357600080fd5b8060405250919050565b600067ffffffffffffffff821115620002f557600080fd5b601f19601f8301169050602081019050919050565b6000819050919050565b60005b838110156200033457808201518184015260208101905062000317565b8381111562000344576000848401525b50505050565b6115e3806200035a6000396000f3006080604052600436106100db576000357c0100000000000000000000000000000000000000000000000000000000900463ffffffff16806306fdde03146100e057806308dcbb511461010b5780631a39d8ef1461014a5780633beb26c414610175578063623bf6fe1461019e578063629f1530146101c957806371bdce55146101f25780638d4e4083146102305780638da5cb5b1461025b57806398c81bbf146102865780639e874da8146102b1578063b8385339146102dc578063c43fd42a14610305578063c9c695c514610330578063cb6f16d41461034c575b600080fd5b3480156100ec57600080fd5b506100f5610377565b6040516101029190611397565b60405180910390f35b34801561011757600080fd5b50610132600480360361012d9190810190611171565b610415565b604051610141939291906113b9565b60405180910390f35b34801561015657600080fd5b5061015f610527565b60405161016c9190611417565b60405180910390f35b34801561018157600080fd5b5061019c60048036036101979190810190611171565b61052d565b005b3480156101aa57600080fd5b506101b361057c565b6040516101c0919061137c565b60405180910390f35b3480156101d557600080fd5b506101f060048036036101eb919081019061119a565b61058f565b005b3480156101fe57600080fd5b5061021960048036036102149190810190611148565b610625565b604051610227929190611432565b60405180910390f35b34801561023c57600080fd5b50610245610753565b604051610252919061137c565b60405180910390f35b34801561026757600080fd5b50610270610766565b60405161027d919061133f565b60405180910390f35b34801561029257600080fd5b5061029b61078b565b6040516102a8919061135a565b60405180910390f35b3480156102bd57600080fd5b506102c66108c5565b6040516102d39190611417565b60405180910390f35b3480156102e857600080fd5b5061030360048036036102fe9190810190611171565b6108cb565b005b34801561031157600080fd5b5061031a610d10565b6040516103279190611417565b60405180910390f35b61034a60048036036103459190810190611171565b610dda565b005b34801561035857600080fd5b50610361610f8b565b60405161036e919061137c565b60405180910390f35b60018054600181600116156101000203166002900480601f01602080910402602001604051908101604052809291908181526020018280546001816001161561010002031660029004801561040d5780601f106103e25761010080835404028352916020019161040d565b820191906000526020600020905b8154815290600101906020018083116103f057829003601f168201915b505050505081565b6060600080600860008581526020019081526020016000206000016008600086815260200190815260200160002060010160009054906101000a900473ffffffffffffffffffffffffffffffffffffffff166008600087815260200190815260200160002060020154828054600181600116156101000203166002900480601f0160208091040260200160405190810160405280929190818152602001828054600181600116156101000203166002900480156105135780601f106104e857610100808354040283529160200191610513565b820191906000526020600020905b8154815290600101906020018083116104f657829003601f168201915b505050505092509250925092509193909250565b60025481565b600660019054906101000a900460ff1615151561054957600080fd5b4260048190555060018102600454016005819055506001600660016101000a81548160ff02191690831515021790555050565b600660029054906101000a900460ff1681565b60035483111515156105a057600080fd5b806008600085815260200190815260200160002060000190805190602001906105ca929190610f9e565b50816008600085815260200190815260200160002060010160006101000a81548173ffffffffffffffffffffffffffffffffffffffff021916908373ffffffffffffffffffffffffffffffffffffffff160217905550505050565b60006060600960008473ffffffffffffffffffffffffffffffffffffffff1673ffffffffffffffffffffffffffffffffffffffff16815260200190815260200160002060000154600960008573ffffffffffffffffffffffffffffffffffffffff1673ffffffffffffffffffffffffffffffffffffffff168152602001908152602001600020600101808054600181600116156101000203166002900480601f0160208091040260200160405190810160405280929190818152602001828054600181600116156101000203166002900480156107435780601f1061071857610100808354040283529160200191610743565b820191906000526020600020905b81548152906001019060200180831161072657829003601f168201915b5050505050905091509150915091565b600660009054906101000a900460ff1681565b6000809054906101000a900473ffffffffffffffffffffffffffffffffffffffff1681565b6060806000806003546040519080825280602002602001820160405280156107c757816020015b60608152602001906001900390816107b25790505b50925060009150600090505b6003548110156108bc57600860008281526020019081526020016000206000018054600181600116156101000203166002900480601f0160208091040260200160405190810160405280929190818152602001828054600181600116156101000203166002900480156108875780601f1061085c57610100808354040283529160200191610887565b820191906000526020600020905b81548152906001019060200180831161086a57829003601f168201915b5050505050838381518110151561089a57fe5b90602001906020020181905250818060010192505080806001019150506107d3565b82935050505090565b60035481565b60008060008060008060009054906101000a900473ffffffffffffffffffffffffffffffffffffffff1673ffffffffffffffffffffffffffffffffffffffff163373ffffffffffffffffffffffffffffffffffffffff1614151561092e57600080fd5b85610937610d10565b14151561094357600080fd5b600660009054906101000a900460ff1615151561095f57600080fd5b600094505b600354851015610ced5785851415610b28576008600086815260200190815260200160002060010160009054906101000a900473ffffffffffffffffffffffffffffffffffffffff1673ffffffffffffffffffffffffffffffffffffffff166108fc6002549081150290604051600060405180830381858888f193505050501580156109f4573d6000803e3d6000fd5b5060006008600087815260200190815260200160002060020181905550600093505b6008600086815260200190815260200160002060040154841015610b23576008600086815260200190815260200160002060030184815481101515610a5757fe5b9060005260206000200160009054906101000a900473ffffffffffffffffffffffffffffffffffffffff169250600960008473ffffffffffffffffffffffffffffffffffffffff1673ffffffffffffffffffffffffffffffffffffffff16815260200190815260200160002060000154600960008573ffffffffffffffffffffffffffffffffffffffff1673ffffffffffffffffffffffffffffffffffffffff168152602001908152602001600020600001600082825403925050819055508380600101945050610a16565b610ce0565b600091505b6008600086815260200190815260200160002060040154821015610cc3576008600086815260200190815260200160002060030182815481101515610b6e57fe5b9060005260206000200160009054906101000a900473ffffffffffffffffffffffffffffffffffffffff1690508073ffffffffffffffffffffffffffffffffffffffff166108fc600960008473ffffffffffffffffffffffffffffffffffffffff1673ffffffffffffffffffffffffffffffffffffffff168152602001908152602001600020600001549081150290604051600060405180830381858888f19350505050158015610c23573d6000803e3d6000fd5b50600960008273ffffffffffffffffffffffffffffffffffffffff1673ffffffffffffffffffffffffffffffffffffffff16815260200190815260200160002060000154600960008373ffffffffffffffffffffffffffffffffffffffff1673ffffffffffffffffffffffffffffffffffffffff168152602001908152602001600020600001600082825403925050819055508180600101925050610b2d565b600060086000878152602001908152602001600020600201819055505b8480600101955050610964565b6001600660006101000a81548160ff021916908315150217905550505050505050565b600080600060086000808152602001908152602001600020600201549150600090505b600354811015610d89576008600082815260200190815260200160002060020154821015610d7c5760086000828152602001908152602001600020600201549150806007819055505b8080600101915050610d33565b6002548210151515610dd0576040517f08c379a0000000000000000000000000000000000000000000000000000000008152600401610dc7906113f7565b60405180910390fd5b6007549250505090565b6000600660029054906101000a900460ff16151515610df857600080fd5b6008600083815260200190815260200160002060040160008154809291906001019190505550349050806008600084815260200190815260200160002060020160008282540192505081905550600860008381526020019081526020016000206003013390806001815401808255809150509060018203906000526020600020016000909192909190916101000a81548173ffffffffffffffffffffffffffffffffffffffff021916908373ffffffffffffffffffffffffffffffffffffffff1602179055505080600960003373ffffffffffffffffffffffffffffffffffffffff1673ffffffffffffffffffffffffffffffffffffffff1681526020019081526020016000206000016000828254019250508190555060086000838152602001908152602001600020600001600960003373ffffffffffffffffffffffffffffffffffffffff1673ffffffffffffffffffffffffffffffffffffffff1681526020019081526020016000206001019080546001816001161561010002031660029004610f8692919061101e565b505050565b600660039054906101000a900460ff1681565b828054600181600116156101000203166002900490600052602060002090601f016020900481019282601f10610fdf57805160ff191683800117855561100d565b8280016001018555821561100d579182015b8281111561100c578251825591602001919060010190610ff1565b5b50905061101a91906110a5565b5090565b828054600181600116156101000203166002900490600052602060002090601f016020900481019282601f106110575780548555611094565b8280016001018555821561109457600052602060002091601f016020900482015b82811115611093578254825591600101919060010190611078565b5b5090506110a191906110a5565b5090565b6110c791905b808211156110c35760008160009055506001016110ab565b5090565b90565b60006110d6823561152c565b905092915050565b600082601f83011215156110f157600080fd5b81356111046110ff8261148f565b611462565b9150808252602083016020830185838301111561112057600080fd5b61112b838284611556565b50505092915050565b6000611140823561154c565b905092915050565b60006020828403121561115a57600080fd5b6000611168848285016110ca565b91505092915050565b60006020828403121561118357600080fd5b600061119184828501611134565b91505092915050565b6000806000606084860312156111af57600080fd5b60006111bd86828701611134565b93505060206111ce868287016110ca565b925050604084013567ffffffffffffffff8111156111eb57600080fd5b6111f7868287016110de565b9150509250925092565b61120a816114f6565b82525050565b600061121b826114c8565b80845260208401935083602082028501611234856114bb565b60005b8481101561126d57838303885261124f8383516112c3565b925061125a826114e9565b9150602088019750600181019050611237565b508196508694505050505092915050565b61128781611516565b82525050565b6000611298826114de565b8084526112ac816020860160208601611565565b6112b581611598565b602085010191505092915050565b60006112ce826114d3565b8084526112e2816020860160208601611565565b6112eb81611598565b602085010191505092915050565b6000601982527f546865726520617265206e6f2043686f696365207265616479000000000000006020830152604082019050919050565b61133981611522565b82525050565b60006020820190506113546000830184611201565b92915050565b600060208201905081810360008301526113748184611210565b905092915050565b6000602082019050611391600083018461127e565b92915050565b600060208201905081810360008301526113b181846112c3565b905092915050565b600060608201905081810360008301526113d3818661128d565b90506113e26020830185611201565b6113ef6040830184611330565b949350505050565b60006020820190508181036000830152611410816112f9565b9050919050565b600060208201905061142c6000830184611330565b92915050565b60006040820190506114476000830185611330565b8181036020830152611459818461128d565b90509392505050565b6000604051905081810181811067ffffffffffffffff8211171561148557600080fd5b8060405250919050565b600067ffffffffffffffff8211156114a657600080fd5b601f19601f8301169050602081019050919050565b6000602082019050919050565b600081519050919050565b600081519050919050565b600081519050919050565b6000602082019050919050565b600073ffffffffffffffffffffffffffffffffffffffff82169050919050565b60008115159050919050565b6000819050919050565b600073ffffffffffffffffffffffffffffffffffffffff82169050919050565b6000819050919050565b82818337600083830152505050565b60005b83811015611583578082015181840152602081019050611568565b83811115611592576000848401525b50505050565b6000601f19601f83011690509190505600a265627a7a723058203a090b335d6326d709cb3ff1e3282469f3b0794f574c29dc3f1f579df8433a596c6578706572696d656e74616cf50037",
  "source": "pragma solidity ^0.4.23;\npragma experimental ABIEncoderV2;\n\nimport \"../Ownable.sol\";\n\ncontract StageFactory is Ownable{\n\n    event NewStage(uint zombieId, string name, uint totalAmount);\n\n    string public name;  // 스테이지 이름\n    uint256 public totalAmount; // 총 모금액\n    uint256 public numOfChoices; // 초이스 개수\n    uint256 startTime;  // 모집 시작 시간\n    uint256 endTime;    // 모집 종료 시간\n    bool public isFinalized; // 현재 컨트랙트(스테이지) 종료 되었는지\n    bool isTimeset;   // 현재 컨트랙트 기한이 세팅되었는지\n    bool public isInvestmentHigher;\n    bool public isRefundingAllowed;\n    uint max_choice_index;  // 목표금액에 달성한다면 최초로 가장 많이 달성한 금액\n    mapping(uint   => Choice)      infoChoice;        // 초이스 별 금액과 현재까지 투자받은 비용\n    mapping(address=> Participant) info_participant; // 투자자에게 받은 금액과 선택 메뉴\n\n\n    struct Choice{\n        string choice_name;        // 초이스 이름 ex) chicken\n        address choice_address;    // 사장님 돈 받을 주소\n        uint investment_till_now;  // 현재까지 초이스별 투자받은 금액\n        address[] participantsOfChoice; // 초이스별 참가한 사람들 이름\n        uint256 numOfParticipants;  // 초이스별 참가한 사람들 숫자\n        uint256 numOfVotes;         // 추후에 투표하기 위해서 만들어 놓음\n    }\n\n    struct Participant{\n        uint256 investMoney;  //참가자의 어떤 초이스에 얼마나 투자 했는지(금액)\n        string choice_name;   //참가자가 어떤 초이스에 투자 했는지(이름)\n    }\n\n\nconstructor(string _name, uint256 _totalAmount,uint256 _numOfChoices) public{\n    name=_name;\n    totalAmount=_totalAmount*1000000000000000000; // ether to wei\n    numOfChoices=_numOfChoices;\n    isFinalized = false; //초기값 flas\n    isTimeset = false;\n    isInvestmentHigher = false;\n    isRefundingAllowed = false;\n}\n\nfunction setTime(uint256 _endTime) public{ // one time only\n    require(!isTimeset);\n    startTime = now;\n    endTime = startTime + _endTime*1 seconds; //편하게 초 단위로 설정했는데 매번 세팅하기 귀찮아서 뒤에서 안쓴다\n    isTimeset = true;\n}\n\nfunction setChoices(uint _num,address _choice_address,string _choice_name) public{ //컨트랙트에 초이스를 적어두는 함수\n    require(_num<=numOfChoices); // 최대 개수 제한\n    infoChoice[_num].choice_name=_choice_name; // Choice 이름\n    infoChoice[_num].choice_address =_choice_address; // Choice 즉 추후에 선정된다면 돈을 받을 사장님 address\n}\n\nfunction getChoices()public view returns(string[]){ // 초이스들 한번에 확인 할 수 있는 함수 자세하게는 안됨\n    string[] memory result = new string[](numOfChoices);\n    uint counter= 0;\n    for(uint i=0;i<numOfChoices;i++){\n        result[counter] = infoChoice[i].choice_name;\n        counter++;\n    }\n    return (result);\n}\n\nfunction getChoiceInfo(uint _choiceId) public view returns(string,address,uint){//초이스들 자세하게 각각 확인 가능한 한 함수\n    return (infoChoice[_choiceId].choice_name ,infoChoice[_choiceId].choice_address ,infoChoice[_choiceId].investment_till_now);\n}\n\nfunction isValidInvestment(uint256 _investment) internal view returns(bool){ //금액 valid 확인 함수\n    bool nonZeroInvestment = _investment != 0;\n    bool withinPeriod = now >= startTime && now <= endTime;\n    return nonZeroInvestment && withinPeriod;\n}\n\nfunction getParticipantInfo(address _participant) public view returns(uint256,string){\n    return (info_participant[_participant].investMoney,info_participant[_participant].choice_name);\n}\n\nfunction attendStage(uint _choice) public payable{//스테이지 참가 함수\n    //require(isValidInvestment(msg.value));\n    require(!isInvestmentHigher);\n\n    infoChoice[_choice].numOfParticipants++; // 초이스 참가 인원 추가\n    uint balance = msg.value;\n    infoChoice[_choice].investment_till_now += balance; // 초이스별 현재까지 투자받은 금액 += balance\n    infoChoice[_choice].participantsOfChoice.push(msg.sender);\n    info_participant[msg.sender].investMoney += balance; // 참가자의 현재까지 투자 금액\n    info_participant[msg.sender].choice_name =  infoChoice[_choice].choice_name; // 참가자의 투자 초이스 이름\n}\n\nfunction checkMaxInvestment()public returns(uint){ // 최대 투자 금액 뭔지 확인하는 함수\n    uint max;\n    max = infoChoice[0].investment_till_now;\n    for(uint i =0;i<numOfChoices;i++){ // 최대 금액이 적힌 초이스 확인\n\n        if (max < infoChoice[i].investment_till_now){\n            max = infoChoice[i].investment_till_now;\n            max_choice_index = i;\n        }\n    }\n    require(max>= totalAmount,\"There are no Choice ready\"); // 적힌 금액이 총 모금액에 도달하는지 확인\n    return max_choice_index;\n}\n\n\nfunction finalizeStage(uint _max_choice_index) onlyOwner public{ // 투자 받은 금액이 총 모금액에 도달했을때 확인\n    require(checkMaxInvestment()==_max_choice_index);\n    require(!isFinalized);\n    for(uint i =0;i<numOfChoices;i++){ // refund for those who are not selected\n\n        if (i == _max_choice_index){ // 목표 금액에 도달했고 목표 금액 넘은 것 중에서 최대투자 금액 index\n            infoChoice[i].choice_address.transfer(totalAmount); //사장님께 송금\n            infoChoice[i].investment_till_now = 0;\n\n            for(uint j=0;j<infoChoice[i].numOfParticipants;j++){ // 있어도 그만 없어도 그만\n                address selected = infoChoice[i].participantsOfChoice[j];\n                info_participant[selected].investMoney -= info_participant[selected].investMoney;\n            }\n        }\n        else{\n            for(uint k=0;k<infoChoice[i].numOfParticipants;k++){ // 얘네는 선택 받지 못한 애들이라서 돈 돌려줘야함\n                address notSelected = infoChoice[i].participantsOfChoice[k];\n                notSelected.transfer(info_participant[notSelected].investMoney);\n                info_participant[notSelected].investMoney -= info_participant[notSelected].investMoney;\n            }\n            infoChoice[i].investment_till_now = 0;\n        }\n    }\n\n    isFinalized=true;\n}\n//투자 금액이 총 모금액에 도달하지 않았고 시간또한 초과 되었을때 함수 만들어야함\n\n\n}\n",
  "sourcePath": "/home/svrainp/Project/Capston_truffle/contracts/Stages/StageFactory.sol",
  "compiler": {
    "name": "solc",
    "version": "0.4.25+commit.59dbf8f1.Emscripten.clang"
  },
  "schemaVersion": "2.0.2",
  "updatedAt": "2021-05-18T00:20:13.712Z"
}