{
  "contractName": "UnlimitedStrategy",
  "abi": [
    {
      "constant": true,
      "inputs": [
        {
          "name": "_investment",
          "type": "uint256"
        },
        {
          "name": "_fullInvestmentReceived",
          "type": "uint256"
        }
      ],
      "name": "isFullInvestmentWithinLimit",
      "outputs": [
        {
          "name": "",
          "type": "bool"
        }
      ],
      "payable": false,
      "stateMutability": "view",
      "type": "function"
    }
  ],
  "bytecode": "0x608060405234801561001057600080fd5b5060c88061001f6000396000f300608060405260043610603f576000357c0100000000000000000000000000000000000000000000000000000000900463ffffffff16806306b9c583146044575b600080fd5b348015604f57600080fd5b50607660048036038101908080359060200190929190803590602001909291905050506090565b604051808215151515815260200191505060405180910390f35b600060019050929150505600a165627a7a72305820e859367186019374be3aafc876e533766bcbbf34f295bcf05c0bfe543b52b3e90029",
  "source": "pragma solidity ^0.4.24;\n\nimport \"../LimitStrategy.sol\";\ncontract UnlimitedStrategy is LimitStrategy {\n    function isFullInvestmentWithinLimit(uint256 _investment, \n        uint256 _fullInvestmentReceived) \n        public view returns (bool) {\n        return true;\n    }\n}",
  "sourcePath": "/home/svrainp/Project/Capston_truffle/contracts/Strategy/EachStrategy/UnlimitedStrategy.sol",
  "compiler": {
    "name": "solc",
    "version": "0.4.25+commit.59dbf8f1.Emscripten.clang"
  },
  "schemaVersion": "2.0.2",
  "updatedAt": "2021-05-18T00:20:13.687Z"
}